:0600000002000902039C4E
:1000620075083F750906750A5B750B4F750C667549
:100072000D6D750E7D750F0775107F75116F7512F9
:040082004002000632
:0300060002067877
:1000860085821D85831E85F01FF520E4F521C0E0DD
:10009600C0E0C0E0C0E0851D82851E83851FF0E5B7
:1000A60020120AEBAB82E58124FCF581EB6009E5C1
:1000B60020B2E7F520752101851D82851E83851FE7
:1000C600F0E520120C0A858222858323120C3EA8B5
:1000D60082A983AEF0FFC000C001C006C007851D1F
:1000E60082851E83851FF0E520120923AC82AD832D
:1000F600AEF0FFE58124FCF581C004C005C006C052
:100106000790000075F0207441120957AC82AD8348
:10011600AEF0FFE58124FCF5818C828D838EF0EFB5
:10012600120C0AAF82E4FDFEE52160137D017E001C
:10013600900001E0F9A3E0FC89828C83742DF08D98
:10014600248E25E52245237023C00774012DF5274B
:10015600E43EF528900001E0F8A3E0FFED28F582E3
:10016600EE3FF5837430F0D007020233900001E0D1
:10017600F529A3E0F52AE52245236051ED2529F866
:10018600EE352AFC0DBD00010E75480A754900853D
:100196002282852383C007C006C005C004C00012A2
:1001A6000DB7A982D000D00474302988828C83F0E0
:1001B60075480A754900852282852383120E2D858E
:1001C6008222858323D005D006D00780A98D278E6D
:1001D600281DBDFF011EAB29AC2AA924AA25C3E907
:1001E6009DEA64808EF063F08095F05040C007E988
:1001F6002BF529EA3CF52A852982852A83E0F5260E
:10020600ED2BF52BEE3CF52C852B82852C83E0859A
:100216002982852A83F0852B82852C83E526F009A1
:10022600B900010A1DBDFF011ED00780B17401256A
:1002360027FDE43528FE900001E0FBA3E0FCE5275E
:100246002BF582E5283CF583742EF074012DF9E434
:100256003EFAED2BF582EE3CF58374302FF0E92B58
:10026600F582EA3CF583E4F022AE82AF83E4F53012
:10027600F531E530252DF9E531352EFAAB2F053070
:10028600E4B53002053175480A7549008E828F83C0
:10029600C007C006C003C002C001120DB7A882D0B5
:1002A60001D002D003D006D00774302889828A8311
:1002B6008BF0120AD075480A7549008E828F831218
:1002C6000E2DAE82AF83EE4F70A8E530252DFDE5ED
:1002D60031352EFEAF2F8D828E838FF0E4120AD039
:1002E600E53024FFFEE53134FFFFE4F532F533C394
:1002F600E5329EE53364808FF063F08095F05056CA
:10030600E532252DF9E533352EFAAB2F89828A831E
:100316008BF0120D9BF534EE252DF535EF352EF5C8
:1003260036852F378535828536838537F0120D9BC6
:1003360089828A838BF0120AD08535828536838539
:1003460037F0E534120AD00532E4B5320205331E21
:10035600BEFF011F809922AE82AF838E048F051ED9
:10036600BEFF011FEC4D70F322AE82AF837C007D91
:1003760000C3EC9EED9F501D9003E8C007C006C069
:1003860005C00412035DD004D005D006D0070CBC0E
:1003960000DF0D80DC22C0E0E51A451B70087519E8
:1003A60001751AC8F51BD0E032AF82D2A0D2A1D215
:1003B600A2D2A37401B53802C2A07402B53802C233
:1003C600A17403B5380474018001E4FE6002C2A280
:1003D6007404B53802C2A3EF2408F9E7FF540124D8
:1003E600FF9290EF03540124FF9291EF030354010F
:1003F60024FF9292EFA2E3E43324FF9293EFC454D6
:100406000124FF9294EFA2E5E43324FF9295EF23B3
:1004160023540124FF9296EE6004D2978002C2977D
:100426009003E812035DD2A0D2A1D2A2D2A322D217
:10043600B722C2B790001212036FD2B790001E12F5
:10044600035D20B7FD30B7FD20B7FD7F00EF241315
:10045600F876007E0030B7FD900028C007C006126F
:10046600035DD006D00730B71BEF2413F987058E3E
:10047600047407C39CF5F005F07401800225E0D5ED
:10048600F0FB4DF720B7FD0EBE080040C80FBF05B4
:100496000040BAAE137F00AC147D00EC2EFEED3F9B
:1004A600FFE5152EFEED3FFFE5162EFEED3FFFACF8
:1004B60017EEB50406EFB5050280047582012275B4
:1004C60082002285829910990280FB22AD82AE833A
:1004D600AFF08D828E838FF0120D9BFC60188C829C
:1004E6000DBD00010EC007C006C0051204C9D00527
:1004F600D006D00780DC22759850438E01438E04C7
:1005060075D7E675D6FF438E10227598000204FD56
:10051600AC82AD83AEF0FFC2A59000C8C007C0068E
:10052600C005C00412036FD2A59001F412036F1226
:1005360004FD900F1975F0801204D2120510900177
:100546009012036F900F2775F0801204D2120510D7
:1005560090177012036F900F4D75F0801204D2122F
:1005660005109007D012036F7548007549C8754A83
:100576000090000375F000120A5B75487775490F05
:10058600754A8090000375F000120A7AD004D005EF
:10059600D006D00790000174CBF07400A3F08C82D3
:1005A6008D838EF0EF1200867548CB754900754A2B
:1005B6000090000375F000120A7A7548F575490F28
:1005C600754A8090000375F000120A7A9000017453
:1005D600D1F07400A3F0853982853A83853BF0E536
:1005E6003C1200867548D1754900754A0090000393
:1005F60075F000120A7A754802754910754A80909E
:10060600000375F000120A7A90000375F000120CD0
:10061600C0AE82AF83C007C00612051090101F75CA
:10062600F0801204D2D006D007752DD7752E00752E
:100636002F008E828F8312026F9000D775F0001202
:1006460004D290102B75F0801204D29003E81203A6
:100656006F12051090000375F0001204D29001F499
:1006660012036F12051090102E75F0801204D2023C
:100676000510D2A59001F412036F1204FD90102EFE
:1006860075F0801204D2120510C2B2C288D2A8D266
:10069600AF751800751900751C00C2A71204351233
:1006A6000438AE1553067F8E077E00AC167D00EC2F
:1006B6004206ED4207AC1353047F8C057C00AA1456
:1006C6007B00EA4204EB4205E515235401F51C754F
:1006D60048647549008E828F83C007C006C005C076
:1006E6000412092EAA82D004D005D006D0078A3D6E
:1006F60075480A7549008E828F83C007C006C005FB
:10070600C00412092E75480A754900120B1BAA82ED
:10071600D004D005D006D0078A3E75480A75490030
:100726008E828F83C007C006C005C004120B1BAAA9
:1007360082D004D0058A3F7548E87549038C828DBE
:1007460083C005C00412092EAA82D004D0058A40AF
:100756007548647549008C828D83C005C0041209F2
:100766002E75480A754900120B1BAA82D004D005C3
:100776008A4175480A7549008C828D83C005C0047C
:1007860012092E75480A754900120B1BAA82D0045D
:10079600D0058A4275480A7549008C828D83C0054A
:1007A600C004120B1BAA82D004D005D006D0078A3B
:1007B600438E828F83C005C004120C4BAA82AB8382
:1007C600AEF0FFE4C0E0C0E07420C0E07441C0E0D9
:1007D6008A828B838EF0EF120CD8858244858345FE
:1007E60085F046F547E58124FCF581D004D0058CDB
:1007F600828D83120C4BAC82AD83AEF0FFE4C0E079
:10080600C0E07420C0E07441C0E08C828D838EF01D
:10081600EF120CD885823985833A85F03BF53CE5A5
:100826008124FCF5818544828545838546F0E5472C
:100836001205167EB87F0B8E048F051EBEFF011FA4
:10084600EC4D7003020904E51A451B6009151A747C
:10085600FFB51A02151BE5196003020904E51860C5
:100866004CD2A7E5406011753801854082C007C0AB
:10087600061203AFD006D007753802854182C0073D
:10088600C0061203AFD006D007753803854282C072
:1008960007C0061203AFD006D00775380485438219
:1008A600C007C0061203AFD006D007808AC2A7E5EC
:1008B6001C601175380175820AC007C0061203AFA5
:1008C600D006D007E53D6011753802853D82C00728
:1008D600C0061203AFD006D007753803853E82C026
:1008E60007C0061203AFD006D007753804853F82CD
:1008F600C007C0061203AFD006D00702083DE519AF
:10090600601290009612036FE518B40100E433F507
:0D0916001875190090000112036F0206A26F
:100F190041542B43574D4F44453D310D0A0041542F
:100F29002B43574A41503D224855415745492D3198
:100F390030484F4C33222C2238383538383638313E
:100F4900220D0A0041542B43495053544152543DF8
:100F590022544350222C227777772E686F6D656D66
:100F69006F6E692E78797A222C38300D0A00504F2D
:100F79005354202F6170692F74656D70416E6448F8
:100F8900756D6920485454502F312E310D0A486F20
:100F990073743A207777772E686F6D656D6F6E6918
:100FA9002E78797A0D0A436F6E74656E742D5479B3
:100FB90070653A206170706C69636174696F6E2F36
:100FC9006A736F6E0D0A436F6E74656E742D4C658E
:100FD9006E6774683A2038300D0A0D0A7B227465F1
:100FE9006D7065726174757265223A002C2268759C
:100FF9006D6964697479223A002C22736974654EAB
:10100900616D65223A224C6976696E6720526F6F6D
:101019006D227D0D0A0041542B43495053454E44DE
:101029003D000D0A0041542B47534C503D37323097
:061039003030300D0A000A
:10092300A8811818C6B2E7C6020B687A10E4FBFC6C
:10093300E58225E0F582E58333F583EB33FBEC3386
:10094300FCEB9548F5F0EC95494006FCABF043828F
:1009530001DADD221209FABC0003020C78EF60FA17
:1009630030D502B2D1E583B4FF03020C8EE582B425
:10097300FF03020C8E258340072482400B020C7870
:100983002483145003020C8EF582EA8DF0A4A8F0A0
:10099300EA8EF0A428F8E435F0F9EB8DF0A428E909
:1009A30035F0F9E433CA8FF0A429F9EA35F0FAEB0C
:1009B300F88EF0A429F9EA35F0FAE433FBEC8DF074
:1009C300A429F9EA35F0FAE43BFBE88FF0A42AFA0C
:1009D300EB35F0FBE433CCFD8EF0A42AFAEB35F0D3
:1009E300FBE43CFCED8FF0A42BFBEC35F0FC20E7A3
:1009F30003120A28020C57AA82AB83A2F73392D1BF
:100A0300F5826002D2F7ACF0E58124F9F8E6FD083F
:100A1300E6FE0886F008E6A2F73392D5F583600276
:050A2300D2F7AFF02244
:06003800E478FFF6D8FD9C
:100A28007804EC7011E58224F8500AF582E4C9CA0A
:100A3800CBFCD8EF22EC7820058220E713D5820181
:100A480022C3E933F9EA33FAEB33FBEC33FCD8EA97
:100A5800158222AC82AD83AE49AF4ABE0004EF6076
:100A68000C1F0FE548120AD0A3DEFADFF88C828D3E
:020A78008322D7
:100016007900E94400601B7A0090103F78DB75A0F8
:1000260000E493F2A308B8000205A0D9F4DAF27549
:02003600A0FF29
:100A7A0085824B85834C85F04DAA4BAB4CAC4D8A95
:100A8A00828B838CF0120D9B60070ABA00F10B80EF
:100A9A00EEA848A949AF4A8A068B05888289838FBE
:100AAA00F0120D9BFBA3A882A9838E828D838CF002
:100ABA00EB120AD0A3AE82AD83EB70DF854B828541
:100ACA004C83854DF02220F71130F6138883A882D3
:100ADA0020F509F6A8837583002280FEF280F5F0DE
:100AEA0022FFA8811818120BDFD2D133E640073053
:100AFA00E70B7582002220E70675820122C2D11215
:100B0A000BC1E97003F5822220D101B3E433F582E7
:100B1A0022E548454960467A01E54825E0F548E579
:100B2A0049334012F549E5829548E58395494003E2
:100B3A000A80E6C3E54913F549E54813F548C3E5D4
:100B4A00829548F5F0E58395494005F58385F0825D
:100B5A00C3E54913F549E54813F548DAE1221209D4
:100B6A00FA7900E583B58202800D5003120CA6E5DE
:100B7A0083C39582120E65E5D0C465D020E117EAD9
:100B8A002DFAEB3EFBEC3FFC50097401120E65ECAA
:100B9A004480FC020C57C3EA9DFAEB9EFBEC9FFCD7
:100BAA00500FC3E499F9E49AFAE49BFBE49CFCB283
:070BBA00D1120A28020C57BA
:10003E007800E84400600A790175A000E4F309D85D
:10004E00FC78DAE84400600C7901900001E4F0A33A
:04005E00D8FCD9FAF7
:100BC1007901AA82E68F82B5821318E6B5F00E1874
:100BD100E6B5830918E68A82B58202790022B480DB
:100BE1000FE5F0700AE5837006E58270027F00EF81
:100BF100B6801518B6001018B6000B18B600060816
:100C0100080876002208080822120EA8700AE58258
:100C1100458345F0700122E430D112F4700BE5F008
:100C2100F47006E58330E7012290800022700AE526
:100C3100F07006E58320E70122907FFF22AC83ABB1
:100C4100827A007900748E020DF6E4AC83AB82FAED
:100C5100F9748E020E23B98003EA13B34010EA241B
:100C610001FAE43BFBE43CFC50047C800582BC00BF
:100C71000EBB000BBA0008E4F5F0F583F58222A261
:100C8100D1E582138CF092F78B838A8222E4F5837B
:100C9100F58275F080F4A2D11322E4F583F5827513
:100CA100F0C0747F22E582C583F582A2D133A2D53B
:100CB10092D11392D5ECCFFCEBCEFBEACDFA22AA6E
:100CC10082AB83120D9B6003A380F8C3E5829AF582
:100CD10082E5839BF583221209FA30D502B2D1BF96
:100CE1000009BC0003020C9B020C8EBC0003020C29
:100CF10078E583B4FF0BE582B4FF03020C9B020C81
:100D010078E582B4FF03020C8EC395835007247FDC
:100D1100400B020C782480145003020C8EF582C320
:100D2100ED9AEE9BEF9C40111582C3EA33F9EB3348
:100D3100FAEC33FBE433FC8005E4CCCBCAF9C08286
:100D410075F019C3E99DEA9EEB9FEC9400D5F00282
:100D5100802D400EE99DF9EA9EFAEB9FFBEC940091
:100D6100FCC3B3E833F8E58233F582E58333F583D9
:100D7100C3E933F9EA33FAEB33FBEC33FC80C4B358
:100D8100E4F938FAE43582FBE43583FCD08250047F
:0A0D910005827C80120A28020C6F14
:0D00090075814D120F15E58260030200069F
:100D9B0020F71430F6148883A88220F507E6A88381
:100DAB0075830022E280F7E49322E022C2D5E5832B
:100DBB0030E70DD2D5E4C39582F582E49583F583B4
:100DCB00E54930E70BE4C39548F548E49549F54907
:100DDB00120B1B30D50BE4C39582F582E49583F59A
:100DEB008322FCABF0AA83A982749EF582C2D1EC5C
:100DFB0030E716D2D1E9F42401F9EAF43400FAEB26
:100E0B00F43400FBECF43400FC120A28020C57FCFF
:100E1B00ABF0AA83A982749EC2D1F582120A280272
:100E2B000C57C2D5E58330E70DD2D5E4C39582F5D7
:100E3B0082E49583F583E54930E70DB2D5E4C3959C
:100E4B0048F548E49549F54912092E30D50BE4C312
:100E5B009582F582E49583F583226040F8258250D4
:100E6B000274FFF582E824F8501ECCCBCAF9E4CC0F
:100E7B0024F85014CBCAF9E4CB24F8500BCAF9E48C
:100E8B00CA24F8500379002224086010F8C3EC132D
:100E9B00FCEB13FBEA13FAE913F9D8F122120F0357
:100EAB00C3749E958240397900120E6530D126E9C4
:100EBB00F42401F582EAF43400F583EBF43400F505
:100ECB00F0ECF43400700AE582458345F0700122A2
:100EDB00E430E70F22EC20E71489828A838BF0221F
:100EEB0030D10AE4F582F583F5F074802274FFF5B6
:100EFB0082F583F5F0747F22AA82AB83A2F733923B
:0E0F0B00D1F5826002D2F7ACF022758200228E
:00000001FF
