:03000000020006F5
:03005F0002000399
:03000300020545AE
:10006200AE82AF838E048F051EBEFF011FEC4D7062
:10007200F322AE82AF837C007D00C3EC9EED9F50E5
:100082001D9003E8C007C006C005C004120062D07C
:1000920004D005D006D0070CBC00DF0D80DC227531
:1000A2009D01C29075BC8043A2049000640200745A
:1000B20085820885830985F00AF50BE4F50CC0E01A
:1000C200C0E0C0E0C0E0850882850983850AF0E5CA
:1000D2000B1207EAAB82E58124FCF581EB6009E5AE
:1000E2000BB2E7F50B750C01850882850983850A39
:1000F200F0E50B12093285820D85830E120966A87E
:1001020082A983AEF0FFC000C001C006C007850807
:1001120082850983850AF0E50B12064BAC82AD831A
:10012200AEF0FFE58124FCF581C004C005C006C025
:100132000790000075F0207441120656AC82AD8320
:10014200AEF0FFE58124FCF5818C828D838EF0EF89
:10015200120932AF82E4FDFEE50C60137D017E00E0
:10016200900001E0F9A3E0FC89828C83742DF08D6C
:100172000F8E10E50D450E7023C00774012DF51288
:10018200E43EF513900001E0F8A3E0FFED28F582CC
:10019200EE3FF5837430F0D00702025F900001E079
:1001A200F514A3E0F515E50D450E6051ED2514F8A3
:1001B200EE3515FC0DBD00010E75230A7524008570
:1001C2000D82850E83C007C006C005C004C00012A0
:1001D2000AD3A982D000D00474302988828C83F09B
:1001E20075230A752400850D82850E83120B3685D0
:1001F200820D85830ED005D006D00780A98D128E80
:10020200131DBDFF011EAB14AC15A90FAA10C3E943
:100212009DEA64808EF063F08095F05040C007E95B
:100222002BF514EA3CF515851482851583E0F5114A
:10023200ED2BF516EE3CF517851682851783E085C2
:100242001482851583F0851682851783E511F009DE
:10025200B900010A1DBDFF011ED00780B17401253E
:1002620012FDE43513FE900001E0FBA3E0FCE51271
:100272002BF582E5133CF583742EF074012DF9E41D
:100282003EFAED2BF582EE3CF58374302FF0E92B2C
:10029200F582EA3CF583E4F022AE82AF83E4F51BFB
:1002A200F51CE51B2518F9E51C3519FAAB1A051BD7
:1002B200E4B51B02051C75230A7524008E828F8308
:1002C200C007C006C003C002C001120AD3A882D070
:1002D20001D002D003D006D00774302889828A83E5
:1002E2008BF01207CF75230A7524008E828F83123A
:1002F2000B36AE82AF83EE4F70A8E51B2518FDE5E5
:100302001C3519FEAF1A8D828E838FF0E41207CF4F
:10031200E51B24FFFEE51C34FFFFE4F51DF51EC3BB
:10032200E51D9EE51E64808FF063F08095F05056C7
:10033200E51D2518F9E51E3519FAAB1A89828A835B
:100342008BF0120AB7F51FEE2518F520EF3519F5D7
:1003520021851A228520828521838522F0120AB7FF
:1003620089828A838BF01207CF852082852183853B
:1003720022F0E51F1207CF051DE4B51D02051E1E62
:10038200BEFF011F80992285829910990280FB226B
:10039200AD82AE83AFF08D828E838FF0120AB7FCEE
:1003A20060188C820DBD00010EC007C006C0051288
:1003B2000389D005D006D00780DC22759850438E81
:1003C20001438E0475D7E675D6FF438E10227598C9
:1003D200000203BDAC82AD83AEF0FFC2A59000C89F
:1003E200C007C006C005C004120074D2A59001F473
:1003F2001200741203BD900C2275F0801203921247
:1004020003D0900190120074900C3075F0801203AA
:10041200921203D0901770120074900C5675F080EF
:100422001203921203D09007D01200747523007544
:1004320024C875250090000375F00012075A752331
:100442008075240C75258090000375F000120779E1
:10045200D004D005D006D00790000174CBF0740010
:10046200A3F08C828D838EF0EF1200B27523CB75D0
:10047200240075250090000375F00012077975239A
:10048200F475240C75258090000375F0001207792D
:1004920090000375F0001209DCAE82AF83C007C082
:1004A200061203D0900D0B75F080120392D006D085
:1004B200077518D1751900751A008E828F83120282
:1004C2009B9000D175F000120392900D1775F08089
:1004D2001203929003E81200741203D09000037585
:1004E200F0001203929001F41200741203D0900DE6
:1004F2001A75F0801203920203D043BC08900032B6
:10050200120074E5BC30E4FB75BC80AEBD7F00EE2A
:100512002EFEEF33FFEE2EFEEF33FFACBE5304038D
:100522007D00EC4EF582ED4FF583221204FC751826
:10053200D5751900751A0012029B9000D575F0004E
:1005420002039290012C120074D2A31203BD120373
:10055200D01200A11203D01204FCAE82AF8390002D
:1005620064C007C0061200741204FCAC82AD839012
:100572000064C005C0041200741204FCAA82AB839A
:10058200900064C003C002120074D002D003D004F1
:10059200D005D006D007EC2EFEED3FFFEA2EF58205
:1005A200EB3FF583120966AC82AD83AEF0FFE4C087
:1005B200E0C0E07440C0E0C0E08C828D838EF0EF3A
:1005C2001209F4AC82AD83AEF0FFE58124FCF58123
:1005D2008C828D838EF0EFC007C006C005C0041266
:1005E20003D6D004D005D006D007C004C005C0068B
:1005F200C00790800075F02274441207EAAF82E5CA
:100602008124FCF581EF600CC2A39007D0C00712D1
:100612000074D007D2A3EF6009904E20120074023A
:1006220005597E007F00C3EE9464EF64809480409D
:1006320003020559902710C007C006120074D006A5
:09064200D0070EBE00E00F80DDC0
:100C220041542B43574D4F44453D310D0A00415429
:100C32002B43574A41503D224855415745492D3192
:100C420030484F4C33222C22383835383836383138
:100C5200220D0A0041542B43495053544152543DF2
:100C620022544350222C227777772E686F6D656D60
:100C72006F6E692E78797A222C38300D0A00504F27
:100C82005354202F6170692F646972742048545440
:100C9200502F312E310D0A486F73743A20777777CF
:100CA2002E686F6D656D6F6E692E78797A0D0A43C5
:100CB2006F6E74656E742D547970653A2061707030
:100CC2006C69636174696F6E2F6A736F6E0D0A438C
:100CD2006F6E74656E742D4C656E6774683A203859
:100CE200300D0A0D0A7B226D6F736974757265226D
:100CF2003A002C22736974654E616D65223A225066
:100D02006F742031227D0D0A0041542B4349505308
:100D1200454E443D000D0A0041542B47534C503D73
:090D22003732303030300D0A0088
:10064B00A8811818C6B2E7C60208671206F9BC00E3
:10065B0003020994EF60FA30D502B2D1E583B4FFFF
:10066B00030209AAE582B4FF030209AA2583400706
:10067B002482400B02099424831450030209AAF527
:10068B0082EA8DF0A4A8F0EA8EF0A428F8E435F005
:10069B00F9EB8DF0A428E935F0F9E433CA8FF0A417
:1006AB0029F9EA35F0FAEBF88EF0A429F9EA35F0DE
:1006BB00FAE433FBEC8DF0A429F9EA35F0FAE43BCC
:1006CB00FBE88FF0A42AFAEB35F0FBE433CCFD8E7C
:1006DB00F0A42AFAEB35F0FBE43CFCED8FF0A42BF5
:1006EB00FBEC35F0FC20E703120727020973AA8203
:1006FB00AB83A2F73392D1F5826002D2F7ACF0E56F
:10070B008124F9F8E6FD08E6FE0886F008E6A2F774
:0C071B003392D5F5836002D2F7AFF022D4
:06003500E478FFF6D8FD9F
:100727007804EC7011E58224F8500AF582E4C9CA0E
:10073700CBFCD8EF22EC7820058220E713D5820185
:1007470022C3E933F9EA33FAEB33FBEC33FCD8EA9B
:10075700158222AC82AD83AE24AF25BE0004EF60C4
:100767000C1F0FE5231207CFA3DEFADFF88C828D6B
:020777008322DB
:100013007900E94400601B7A00900D2B78DF75A00E
:1000230000E493F2A308B8000205A0D9F4DAF2754C
:02003300A0FF2C
:1007790085822685832785F028AA26AB27AC288A77
:10078900828B838CF0120AB760070ABA00F10B80DA
:10079900EEA823A924AF258A068B05888289838F31
:1007A900F0120AB7FBA3A882A9838E828D838CF0ED
:1007B900EB1207CFA3AE82AD83EB70DF852682856E
:1007C90027838528F02220F71130F6138883A88221
:1007D90020F509F6A8837583002280FEF280F5F0E2
:1007E90022FFA8811818120907D2D133E640073031
:1007F900E70B7582002220E70675820122C2D11219
:1008090008E9E97003F5822220D101B3E433F582C6
:1008190022E523452460467A01E52325E0F523E511
:1008290024334012F524E5829523E583952440037A
:100839000A80E6C3E52413F524E52313F523C3E56C
:10084900829523F5F0E58395244005F58385F082AB
:10085900C3E52413F524E52313F523DAE12212066F
:10086900F97900E583B58202800D50031209C2E5CA
:1008790083C39582120B6EE5D0C465D020E117EAD7
:100889002DFAEB3EFBEC3FFC50097401120B6EECA8
:100899004480FC020973C3EA9DFAEB9EFBEC9FFCC2
:1008A900500FC3E499F9E49AFAE49BFBE49CFCB287
:0708B900D1120727020973A9
:10003B007800E84400600A790175A000E4F309D860
:10004B00FC78DEE84400600C7901900001E4F0A339
:04005B00D8FCD9FAFA
:1008C0007A10E4FBFCE58225E0F582E58333F583CD
:1008D000EB33FBEC33FCEB9523F5F0EC9524400671
:1008E000FCABF0438201DADD227901AA82E68F8235
:1008F000B5821318E6B5F00E18E6B5830918E68A36
:1009000082B58202790022B4800FE5F0700AE58397
:100910007006E58270027F00EFB6801518B60010F1
:1009200018B6000B18B6000608080876002208085A
:100930000822120BB1700AE582458345F07001224E
:10094000E430D112F4700BE5F0F47006E58330E783
:10095000012290800022700AE5F07006E58320E70E
:100960000122907FFF22AC83AB827A007900748EE3
:10097000020B12B98003EA13B34010EA2401FAE42F
:100980003BFBE43CFC50047C800582BC000EBB00B9
:100990000BBA0008E4F5F0F583F58222A2D1E582D6
:1009A000138CF092F78B838A8222E4F583F58275AB
:1009B000F080F4A2D11322E4F583F58275F0C074BF
:1009C0007F22E582C583F582A2D133A2D592D113CD
:1009D00092D5ECCFFCEBCEFBEACDFA22AA82AB8318
:1009E000120AB76003A380F8C3E5829AF582E58313
:1009F0009BF583221206F930D502B2D1BF0009BCA3
:100A000000030209B70209AABC0003020994E583A6
:100A1000B4FF0BE582B4FF030209B7020994E58233
:100A2000B4FF030209AAC395835007247F400B0239
:100A3000099424801450030209AAF582C3ED9AEEAA
:100A40009BEF9C40111582C3EA33F9EB33FAEC3388
:100A5000FBE433FC8005E4CCCBCAF9C08275F01905
:100A6000C3E99DEA9EEB9FEC9400D5F002802D40F7
:100A70000EE99DF9EA9EFAEB9FFBEC9400FCC3B3F0
:100A8000E833F8E58233F582E58333F583C3E93350
:100A9000F9EA33FAEB33FBEC33FC80C4B3E4F93806
:100AA000FAE43582FBE43583FCD082500405827C75
:070AB0008012072702098BE9
:0D000600758128120C1EE5826003020003C4
:100AB70020F71430F6148883A88220F507E6A88368
:100AC70075830022E280F7E49322E022C2D5E58312
:100AD70030E70DD2D5E4C39582F582E49583F5839B
:100AE700E52430E70BE4C39523F523E49524F524A7
:100AF70012081A30D50BE4C39582F582E49583F585
:100B07008322FCABF0AA83A982749EF582C2D1EC42
:100B170030E716D2D1E9F42401F9EAF43400FAEB0C
:100B2700F43400FBECF43400FC120727020973C20B
:100B3700D5E58330E70DD2D5E4C39582F582E495F8
:100B470083F583E52430E70DB2D5E4C39523F52378
:100B5700E49524F5241208C030D50BE4C39582F53B
:100B670082E49583F583226040F82582500274FF62
:100B7700F582E824F8501ECCCBCAF9E4CC24F8500F
:100B870014CBCAF9E4CB24F8500BCAF9E4CA24F809
:100B9700500379002224086010F8C3EC13FCEB1310
:100BA700FBEA13FAE913F9D8F122120C0CC3749E6D
:100BB700958240397900120B6E30D126E9F4240171
:100BC700F582EAF43400F583EBF43400F5F0ECF445
:100BD7003400700AE582458345F0700122E430E76E
:100BE7000F22EC20E71489828A838BF02230D10A06
:100BF700E4F582F583F5F074802274FFF582F583BE
:100C0700F5F0747F22AA82AB83A2F73392D1F582E3
:0B0C17006002D2F7ACF02275820022D0
:00000001FF
